:1000000012C019C018C017C016C015C014C013C044
:1000100012C031C110C00FC00EC00DC00CC00BC04B
:100020000AC009C008C011241FBECFE5D4E0DEBF5E
:10003000CDBF77D027C125C100001200000000000D
:10004000000000000000000000040050505000506C
:1000500000000001000A0000000000000000000095
:1000600000000001005E000000000001010000002F
:10007000000000010000000000000000000000007F
:100080000000000000000000000000000000000070
:100090000000000000000000000000000000000060
:1000A0000000000000000000000000000000000050
:1000B0000000000000000000000000000000000040
:1000C0000000000000000000000000000000000030
:1000D0000000000000000000000000000000000719
:1000E000000000000000000000000000001E0000F2
:1000F0003C3C000000000000000000000000000088
:1001000000000000000000000000000000000000EF
:1001100000000000000000000000000000000000DF
:1001200000008ED0A1D09AD049D0303009F48BD0C5
:1001300083D008D021D031D03FD080D014E18BD0F3
:10014000F7CF089567D058D043E044D04FEF42D066
:100150006ED060D051D000E1402F3CD040E83AD082
:1001600003950831D9F763D055D046D042E032D05C
:1001700040E030D05CD008954DD03ED000E0402F1C
:1001800029D048D039D0E8E3F0E0449123D031962B
:100190000395093ED1F74BD008953CD02DD041EBCB
:1001A00019D04CEA17D043D035D026D043E012D036
:1001B00047E010D03CD00895000008953FE72AD0D2
:1001C0001BD00F3F29F400273150303009F0F7CF12
:1001D0002ED008950F9306B707FFFDCF042F03B964
:1001E00004E806BF06B707FFFDCF01B1087F08325C
:1001F00009F029D00F910895032F000F03B904E8E7
:1002000006BF06B707FFFDCF01B1087F083109F02F
:100210000FEF089504EA06BF06B707FFFDCF01B14F
:10022000087F083019F0003109F00DD008950F93C0
:1002300004E906BF0F910895979A08959798089535
:100240008F9A97980895979A11E005D0979811E0A2
:1002500002D0F9CF08951030F1F708950CE000B9FD
:1002600001B1036001B9089501E0046003BF01E03A
:1002700009BF789408950F930FB711500FBF0F91D6
:0802800018951895F894FFCFC2
:00000001FF
