:1000000012C019C018C017C016C015C014C013C044
:1000100012C094C010C00FC00EC00DC00CC00BC0E9
:100020000AC009C008C011241FBECFE5D4E0DEBF5E
:10003000CDBF02D08AC088C071D079D072D02CD008
:10004000303009F460D005D014D01FD023D0FFCFBA
:10005000089549D03AD043E02BD04FEF29D000E1AA
:10006000402F26D040E824D003950831C9F748D066
:10007000089539D02AD000E0402F1AD040E618D099
:1000800003950A3EC9F73CD0089541EB11D04CEAE4
:100090000FD00895000008953FE725D016D00F3FF8
:1000A00029F400273150303009F0F7CF29D00895D6
:1000B000042F03B904E806BF06B707FFFDCF01B15F
:1000C000087F083209F01FD00895032F000F03B9ED
:1000D00004E806BF06B707FFFDCF01B1087F08316E
:1000E00009F00FEF089504EA06BF06B707FFFDCF3A
:1000F00001B1087F083019F0003109F004D00895EB
:1001000004E906BF0895979A11E005D0979813E087
:1001100002D0F9CF08951030F1F708958F9A97988B
:1001200008950CE000B901B1036001B9089501E040
:10013000046003BF01E009BF789408950F930FB7DF
:0E01400011500FBF0F9118951895F894FFCF2E
:10014E00000012000000000000000000000000008F
:10015E00000400505050005000000001000A000042
:10016E00000000000000000000000001005E000022
:10017E00000000010100000000000001000000006E
:10018E000000000000000000000000000000000061
:10019E000000000000000000000000000000000051
:1001AE000000000000000000000000000000000041
:1001BE000000000000000000000000000000000031
:1001CE000000000000000000000000000000000021
:1001DE000000000000000000000000000000000011
:1001EE0000000000000000070000000000000000FA
:1001FE0000000000001E00003C3C0000000000005B
:10020E0000000000000000000000000000000000E0
:10021E0000000000000000000000000000000000D0
:0A022E0000000000000000000000C6
:00000001FF
