:1000000012C019C018C017C016C015C014C013C044
:1000100012C076C010C00FC00EC00DC00CC00BC007
:100020000AC009C008C011241FBECFE5D4E0DEBF5E
:10003000CDBF02D06CC06AC053D05BD054D00ED0BC
:10004000303009F442D003D007D0FFCF08952DD02F
:100050001ED010D037D00895000008953FE725D076
:1000600016D00F3F29F400273150303009F0F7CF78
:1000700029D00895042F03B904E806BF06B707FF87
:10008000FDCF01B1087F083209F01FD00895032F7A
:10009000000F03B904E806BF06B707FFFDCF01B1A3
:1000A000087F083109F00FEF089504EA06BF06B78C
:1000B00007FFFDCF01B1087F083019F0003109F0CA
:1000C00004D0089504E906BF0895979A11E005D079
:1000D000979813E002D0F9CF08951030F1F7089502
:1000E0008F9A979808950CE000B901B1036001B9A7
:1000F000089501E0046003BF01E009BF789408950A
:100100000F930FB711500FBF0F9118951895F894D2
:02011000FFCF1F
:1001120000001200000000000000000000000000CB
:10012200000400505050005000000001000A00007E
:10013200000000000000000000000001005E00005E
:1001420000000001010000000000000100000000AA
:10015200000000000000000000000000000000009D
:10016200000000000000000000000000000000008D
:10017200000000000000000000000000000000007D
:10018200000000000000000000000000000000006D
:10019200000000000000000000000000000000005D
:1001A200000000000000000000000000000000004D
:1001B2000000000000000007000000000000000036
:1001C20000000000001E00003C3C00000000000097
:1001D200000000000000000000000000000000001D
:1001E200000000000000000000000000000000000D
:0A01F2000000000000000000000003
:00000001FF
