:1000000012C019C018C017C016C015C014C013C044
:1000100012C0D9C110C00FC00EC00DC00CC00BC0A3
:100020000AC009C008C011241FBECFE5D4E0DEBF5E
:10003000CDBF77D0CFC1CDC10000120000000000BD
:10004000000000000000000000040050505000506C
:1000500000000001000A0000000000000000000095
:1000600000000001005E000000000001010000002F
:10007000000000010000000000000000000000007F
:100080000000000000000000000000000000000070
:100090000000000000000000000000000000000060
:1000A0000000000000000000000000000000000050
:1000B0000000000000000000000000000000000040
:1000C0000000000000000000000000000000000030
:1000D0000000000000000000000000000000000719
:1000E000000000000000000000000000001E0000F2
:1000F0003C3C000000000000000000000000000088
:1001000000000000000000000000000000000000EF
:1001100000000000000000000000000000000000DF
:10012000000036D149D142D1F1D0303009F433D179
:100130002BD11EE138D1ABD029D11EE134D170D002
:10014000F7CF08955AE16FEFD9D05BE16FEFD6D0CA
:100150005CE160E0D3D05DE160E1D0D05EE160E0E1
:10016000CDD05FE160EFCAD050E260E0C7D051E28D
:1001700060E0C4D05AE260E0C1D05BE261E0BED092
:100180005CE260E0BBD05DE26BE2B8D05EE260E0D2
:10019000B5D05FE260E0B2D050E360E0AFD051E3B1
:1001A00060E0ACD051EB60EAA9D050E16FE4A6D09A
:1001B00008955AE16FEFA2D05BE16FEF9FD05CE151
:1001C00060E09CD05DE160E199D05EE160E096D0B6
:1001D0005FE160EF93D050E260E090D051E260E0E8
:1001E0008DD05AE260E08AD05BE261E087D05CE2C9
:1001F00060E084D05DE268E581D05EE260E07ED0C0
:100200005FE260E07BD050E360E078D051E360E0F3
:1002100075D051EB60EA72D050E16FE46FD0089571
:100220005AE16FEF6BD05BE16FEF68D05CE160E0AB
:1002300065D05DE160E162D05EE160E05FD05FE1EA
:1002400060EF5CD050E260E059D051E260E056D0FF
:100250005AE260E053D05BE261E050D05CE261E0E2
:100260004DD05DE260EC4AD05EE260E047D05FE2F4
:1002700060E044D050E360E041D051E360E03ED024
:1002800051EB60EA3BD050E16FE438D008955AE179
:100290006FEF34D05BE16FEF31D05CE160E02ED0E6
:1002A0005DE160E12BD05EE160E028D05FE160EFCE
:1002B00025D050E260E022D051E260E01FD05AE247
:1002C00060E01CD05BE261E019D05CE263E016D034
:1002D0005DE262E813D05EE260E010D05FE260E0D1
:1002E0000DD050E360E00AD051E360E007D051EB5D
:1002F00060EA04D050E16FE401D0089533D024D0F7
:10030000452F10D0462F0ED03AD008953FE72AD07F
:100310001BD00F3F29F400273150303009F0F7CFC0
:100320002ED008950F9306B707FFFDCF042F03B912
:1003300004E806BF06B707FFFDCF01B1087F08320A
:1003400009F029D00F910895032F000F03B904E895
:1003500006BF06B707FFFDCF01B1087F083109F0DE
:100360000FEF089504EA06BF06B707FFFDCF01B1FE
:10037000087F083019F0003109F00DD008950F936F
:1003800004E906BF0F910895979A089597980895E4
:100390008F9A97980895979A11E005D0979811E051
:1003A00002D0F9CF08951030F1F708950CE000B9AC
:1003B00001B1036001B9089501E0046003BF01E0E9
:1003C00009BF789408950F930FB711500FBF0F9185
:0803D00018951895F894FFCF71
:00000001FF
