:1000000012C019C018C017C016C015C014C013C044
:1000100012C0A7C010C00FC00EC00DC00CC00BC0D6
:100020000AC009C008C011241FBECFE5D4E0DEBF5E
:10003000CDBF14D09DC09BC01AFF1BFF1C001D101C
:100040001E001FF0200021002A002B012C032D820E
:100050002E002F0030003100B1A0104F67D07AD0B1
:1000600073D022D0303009F464D05CD01EE169D066
:1000700006D05AD01EE165D002D0F7CF0895772779
:10008000E8E3F0E054913196649106D073957231B3
:1000900011F03196F7CF089533D024D0452F10D0EA
:1000A000462F0ED03AD008953FE72AD01BD00F3FFD
:1000B00029F400273150303009F0F7CF2ED00895C1
:1000C0000F9306B707FFFDCF042F03B904E806BF5F
:1000D00006B707FFFDCF01B1087F083209F029D02C
:1000E0000F910895032F000F03B904E806BF06B768
:1000F00007FFFDCF01B1087F083109F00FEF089528
:1001000004EA06BF06B707FFFDCF01B1087F08303C
:1001100019F0003109F00DD008950F9304E906BFDE
:100120000F910895979A0895979808958F9A9798A0
:100130000895979A11E005D0979811E002D0F9CF71
:1001400008951030F1F708950CE000B901B1036093
:1001500001B9089501E0046003BF01E009BF78948C
:1001600008950F930FB711500FBF0F911895189561
:04017000F894FFCF31
:00000001FF
