:1000000012C019C018C017C016C015C014C013C044
:1000100012C06BC110C00FC00EC00DC00CC00BC011
:100020000AC009C008C011241FBECFE5D4E0DEBF5E
:10003000CDBF77D061C15FC1000012000000000099
:10004000000000000000000000040050505000506C
:1000500000000001000A0000000000000000000095
:1000600000000001005E000000000001010000002F
:10007000000000010000000000000000000000007F
:100080000000000000000000000000000000000070
:100090000000000000000000000000000000000060
:1000A0000000000000000000000000000000000050
:1000B0000000000000000000000000000000000040
:1000C0000000000000000000000000000000000030
:1000D0000000000000000000000000000000000719
:1000E000000000000000000000000000001E0000F2
:1000F0003C3C000000000000000000000000000088
:1001000000000000000000000000000000000000EF
:1001100000000000000000000000000000000000DF
:100120000000C8D0DBD0D4D083D0303009F4C5D0A3
:10013000BDD01EE1CAD006D0BBD01EE1C6D039D09A
:10014000F7CF08955AE16FEF6BD05BE16FEF68D0A6
:100150005CE160E065D05DE160E162D05EE160E0BD
:100160005FD05FE160EF5CD050E260E059D051E2D7
:1001700060E056D05AE260E053D05BE261E050D0DC
:100180005CE260E04DD05DE26BE24AD05EE260E0AE
:1001900047D05FE260E044D050E360E041D051E3FB
:1001A00060E03ED051EB60EA3BD050E16FE438D0E4
:1001B00008955AE16FEF34D05BE16FEF31D05CE12D
:1001C00060E02ED05DE160E12BD05EE160E028D000
:1001D0005FE160EF25D050E260E022D051E260E0C4
:1001E0001FD05AE260E01CD05BE261E019D05CE213
:1001F00060E016D05DE268E513D05EE260E010D00A
:100200005FE260E00DD050E360E00AD051E360E0CF
:1002100007D051EB60EA04D050E16FE401D00895BB
:1002200033D024D0452F10D0462F0ED03AD0089589
:100230003FE72AD01BD00F3F29F400273150303040
:1002400009F0F7CF2ED008950F9306B707FFFDCF23
:10025000042F03B904E806BF06B707FFFDCF01B1BD
:10026000087F083209F029D00F910895032F000F5D
:1002700003B904E806BF06B707FFFDCF01B1087F49
:10028000083109F00FEF089504EA06BF06B707FF2B
:10029000FDCF01B1087F083019F0003109F00DD011
:1002A00008950F9304E906BF0F910895979A089552
:1002B000979808958F9A97980895979A11E005D086
:1002C000979811E002D0F9CF08951030F1F7089512
:1002D0000CE000B901B1036001B9089501E00460C8
:1002E00003BF01E009BF789408950F930FB7115031
:0C02F0000FBF0F9118951895F894FFCFE0
:00000001FF
