:1000000012C019C018C017C016C015C014C013C044
:1000100012C000C010C00FC00EC00DC00CC00BC07D
:100020000AC009C008C011241FBECFE5D4E0DEBF5E
:10003000CDBF00D021C100C00000120000000000B0
:10004000000000000000000000040050505000506C
:1000500000000001000A0000000000000000000095
:1000600000000001005E000000000001010000002F
:10007000000000010000000000000000000000007F
:100080000000000000000000000000000000000070
:100090000000000000000000000000000000000060
:1000A0000000000000000000000000000000000050
:1000B0000000000000000000000000000000000040
:1000C0000000000000000000000000000000000030
:1000D0000000000000000000000000000000000719
:1000E000000000000000000000000000001E0000F2
:1000F0003C3C000000000000000000000000000088
:1001000000000000000000000000000000000000EF
:1001100000000000000000000000000000000000DF
:100120000093D09BD094D045D0303009F482D006D3
:10013000D01FD02ED03CD07BD0FFCF089566D057B3
:10014000D043E043D04FEF41D06DD05FD050D000CE
:10015000E1402F3BD040E839D003950831D9F76210
:10016000D054D045D042E031D040E02FD05BD00811
:10017000954CD03DD000E0402F28D0ECE1F0E0C815
:1001800095402D23D03196FA3ED1F731964BD008C9
:10019000953CD02DD041EB19D04CEA17D043D03547
:1001A000D026D043E012D047E010D03CD0089500D4
:1001B0000008953FE72AD01BD00F3F29F4002731D4
:1001C00050303009F0F7CF2ED008950F9306B707BF
:1001D000FFFDCF042F03B904E806BF06B707FFFDF4
:1001E000CF01B1087F083209F024D00F91089503A0
:1001F0002F000F03B904E806BF06B707FFFDCF01C4
:10020000B1087F083109F00FEF089504EA06BF0630
:10021000B707FFFDCF01B1087F083019F0003109A1
:10022000F008D008950F9304E906BF0F9108959741
:100230009A0895979A11E005D0979813E002D0F9A3
:10024000CF08951030F1F708958F9A979808950C7C
:10025000E000B901B1036001B9089501E004600351
:10026000BF01E009BF789408950F930FB711500FA5
:0C027000BF0F911895189500F894FFCF6F
:00000001FF
